:100000008A0704000000000000000000000000005B
:1000100000000000000000000000000000000000E0
:1000200000000000000000000000000000000000D0
:1000300000000000000000000000000000000000C0
:1000400000000000000000000000000000000000B0
:1000500000000000000000000000000000000000A0
:100060000000000000000000000000000000000090
:100070000000000000000000000000000000000080
:100080000000000000000000000000000000000070
:100090000000000000000000000000000000000060
:1000A0000000000000000000000000000000000050
:1000B0000000000000000000000000000000000040
:1000C0000000000000000000000000000000000030
:1000D0000000000000000000000000000000000020
:1000E0000000000000000000000000000000000010
:1000F0000000000000000000000000000000000000
:1001000000000000000000000000000000000000EF
:1001100000000000000000000000000000000000DF
:1001200000000000000000000000000000000000CF
:1001300000000000000000000000000000000000BF
:1001400000000000000000000000000000000000AF
:10015000000000000000000000000000000000009F
:10016000000000000000000000000000000000008F
:10017000000000000000000000000000000000007F
:10018000000000000000000000000000000000006F
:10019000000000000000000000000000000000005F
:1001A000000000000000000000000000000000004F
:1001B000000000000000000000000000000000003F
:1001C000000000000000000000000000000000002F
:1001D000000000000000000000000000000000001F
:1001E000000000000000000000000000000000000F
:1001F00000000000000000000000000000000000FF
:100F14004F8B2000F07F220020A0B700100020009B
:100F240034A0B700400020004420B700C2070200EC
:100F3400000000008A1F78008B1F7800F0FF2F004C
:100F4400A8A2B700F0FF2F00E4A2B700E8FE070054
:100F540032FF070013FF0700BFFF0700A00A2000AD
:100F6400CEA2B7001B002000EA2C2000ABFF070034
:100F74002FFF0700CF0578004F057800FFFF3700EB
:000F84006D
:100AF4000000FA008A1F7800518A20000020EF00CD
:100B0400804878000020EF0090458800C682A90044
:100B1400C6A2A900C642A900C662A900C602A900CD
:100B2400C622A900CA82A900D2E2A900D2C2A900A1
:100B3400D2A2A900D282A900D262A900D242A900FD
:100B4400D222A900D202A900CA42A900CA62A900FD
:100B5400CA02A900CA22A800CA82A800B8FF0700D6
:100B6400FAC3B30064FF07005CFF07000ACCB300BC
:100B740061FF070059FF0700CA02A800CA22A900A2
:100B8400FAC3B3005CFF070054FF07000ACCB300AC
:100B940059FF070051FF07004F0578000080FA0055
:040BA4000000060047
:100A4400670020000E20ED00FEFF3A0000000000C9
:080A5400000000000000060094
:1008FC000000FA0014E0AE00D4E2A90014E0AF004E
:10090C00D4E2A8000000000014C0AE00D4C2A900BC
:10091C0014C0AF00D4C2A8000000000014A0AE00A8
:10092C00D4A2A90014A0AF00D4A2A800000000001B
:10093C001480AE00D482A9001480AF00D482A80029
:10094C00000000001460AE00D462A9001460AF0077
:10095C00D462A800000000001440AE00D442A900EC
:10096C001440AF00D442A800000000001420AE00D8
:10097C00D422A9001420AF00D422A800000000004B
:10098C001400AE00D402A9001400AF00D402A800D9
:0C099C00000000000080FA0000000600CF
:1008E0000000FA0061FF0700CAA2A8005FFF07002E
:0C08F000CAA2A9000080FA000000060067
:10066C00270420000E20ED00FEFF3A0000000000E1
:08067C00000000000000060070
:100C20008A1F78001420EF005FFF07004F0578004F
:040C300000000600BA
:1009A8000000FA00CA02A900CA22A8000420EF0029
:1009B8006710E1000D003E008A1F780002457800AC
:1009C8003CFF07004F0578000220EF00F0032000ED
:1009D8000008E10003003E0083FE07000220EC004F
:1009E800FAFF37000420EC00F1FF3700CA22A90003
:1009F800CA02A8000420EF006710E1000D003E00C5
:100A08008A1F7800024578002AFF07004F05780002
:100A18000220EF00F00320000008E10003003E0080
:100A280071FE07000220EC00FAFF37000420EC00FA
:0C0A3800F1FF37000080FA00000006000B
:1006BC000000FA008A1F7800CA42A900CA62A90089
:1006CC008A80FB00800B20000080700000457800C1
:1006DC00870007007F0007004F0578000080FA00B4
:0406EC000000060004
:1003F0000000FA00CAA2A900CA42A800CA62A90065
:100400003E010700360107000080FA0000000600E8
:00041000EC
:100BA8008A1F78008B1F78008C1F78008D1F7800B3
:100BB800D3882000180007002DC0B3001CC0B30064
:100BC8002BC0B30003057800A2FF0700A086200011
:100BD8002DC0B3003CC0B3002BC0B30000057800A3
:100BE8009CFF0700408520002DC0B3004CC0B30017
:100BF8002BC0B3000005780096FF07002EFF070002
:100C080005000700CF0678004F067800CF0578006A
:080C18004F0578000000060002
:100A5C000000FA000420EF00508A200010407800BB
:100A6C006004E1000C003A00318A200050C0B30051
:100A7C0080487800418A200070C0B300804878001C
:100A8C0000002800304588001000200040458800F8
:100A9C000002200070458800020045001004E000B0
:100AAC000F00320002004500821F78008A9FBE00B2
:100ABC00104578007FFE07004F05BE004F017800FF
:100ACC00308A20001080FB00E10040000B80FB000E
:100ADC0001004000804578000420EC00EEFF370058
:080AEC000080FA000000060082
:1004C0000200FA008A1F78006764E100010036002C
:1004D000630037008A80FB00E08A20009080500093
:1004E000308A20001080FB000008B800000378006C
:1004F0000B45780042FF07000C4578006F000700AD
:100500000A20EF00308A20001080FB000028E10064
:1005100038003100F0C7B300005CE1000100360094
:100520004F0037008A1F78000B4578004AFF07000C
:100530000C457800610007000B45780030FF07008C
:100540004F05780052FF07000047980050FF070052
:10055000004798008A1F78000B4578003EFF07008F
:100560000C457800550007000B45780024FF070074
:100570004F057800860178004F9ADE00628A2000DD
:1005800032804100A2004A0010407800004178000B
:100590000C20EC0000E0EE00080037000047980057
:1005A0000C003700024798000A003700E0004700BF
:1005B000600047001148690006003700606CE100E8
:1005C000F6FF3200616CE100F6FF3200626CE10080
:1005D000F6FF32008A1F78000E45900084FF070066
:1005E0004F05780061C04500804578000A20EC0086
:1005F000C4FF37008A1F78000B45780016FF0700FC
:100600000C4578002D0007000B457800FCFE070024
:100610004F057800F0CFB3000220EF000C00370048
:10062000004798008A1F78000045780070FF070097
:100630004F0578000A003700014798008A1F7800AC
:10064000014578006AFF07004F0578000400370075
:10065000606CE100F2FF3200616CE100F6FF3200F5
:0C0660004F0578000080FA000000060042
:100200000000FA008A1F78008A80FB00F0072000B7
:100210000080600000457800CA42A900CA62A900B7
:100220008080FB00F00B200000806000004578001B
:100230008080FB00000420000080700000457800F2
:1002400000457800AD010700A50107004F057800C3
:080250000080FA000000060026
:100258000000FA008A80FB00F007200000806000A0
:100268000045780000C0AE0003003700CA02A800AD
:10027800CA22A90002003700CA02A900CA22A8009F
:080288000080FA0000000600EE
:100290000200FA00D2E2A800D2C2A800D2A2A800AE
:1002A000D282A800D262A800D242A800D222A8001E
:1002B000D202A800E3010700E2010700CA42A80039
:1002C000CAA2A900CA62A800CAA2A800E700070043
:1002D000600047001070A000D4E2AE001070A100D2
:1002E000600047001060A000D4C2AE001060A10002
:1002F000600047001050A000D4A2AE001050A10032
:10030000600047001040A000D482AE001040A10061
:10031000600047001030A000D462AE001030A10091
:10032000600047001020A000D442AE001020A100C1
:10033000600047001010A000D422AE001010A100F1
:10034000600047001000A000D402AE001000A10021
:10035000CAA2A900CA62A900BA010700B901070030
:10036000D2E2A900D2C2A900D2A2A900D282A900D9
:10037000D262A900D242A900D222A900D202A900C9
:0C0380000E4090000080FA000000060013
:1008C000685F2000B72F2E000E20ED00FEFF3A00DB
:1008D0001020ED00FCFF3A000000000000000600C0
:0008E00018
:100E5C000800FA008A1F78008B1F78008C1F78001E
:100E6C008D1F78006BFF0700A1872000E083200016
:100E7C000007980080822000100798003081200025
:100E8C002007980000802000300798002DC0B30088
:100E9C001820EF002BC0B30001057800ECFE070012
:100EAC002DC0B3002CC0B3002BC0B3000E059000B6
:100EBC00E7FE07002DC0B3003CC0B3002BC0B3004D
:100ECC001E059000E2FE07002DC0B3004CC0B3001D
:100EDC002BC0B3002E059000DDFE07002DC0B30023
:100EEC005CC0B3002BC0B3003E059000D8FE0700D9
:100EFC00CF0678004F067800CF0578004F057800B4
:080F0C000080FA00000006005D
:100E20000000FA008A458800100020000B00DD0059
:100E30005045880000A0EE00604588001A0D600053
:100E4000804580006201500092007800C08A200036
:0C0E5000108960000080FA00000006001D
:100C34008A1F78008B1F78008C1F78008D1F780026
:100C44001D0020001C0020007B0020000A2E200034
:100C5400A6FE07000000E20003003200CB122000D1
:100C64005A102000C6FE0700E0E2AE000100370083
:100C7400FDFF37001D0020001C0020006B00200039
:100C84000A2E200099FE07000000E2000300320053
:100C9400CB1220005A122000B9FE0700E0C2AE00B9
:100CA40001003700FDFF37001D0020001C0020005C
:100CB4005B0020000A2E20008CFE07000000E200EA
:100CC40003003200CB1220009A142000ACFE07006F
:100CD400E0A2AE0001003700FDFF37001D00200038
:100CE4001C0020004B0020000A2E20007FFE07007D
:100CF4000000E20003003200CB122000DA152000CD
:100D04009FFE0700E082AE0001003700FDFF3700C0
:100D14001D0020001C0020003B0020000A2E2000A3
:100D240072FE07000000E20003003200CB12200034
:100D34008A18200092FE0700E062AE00010037002E
:100D4400FDFF37001D0020001C0020002B002000A8
:100D54000A2E200065FE07000000E20003003200B6
:100D6400CB1220008A1B200085FE0700E042AE0063
:100D740001003700FDFF37001D0020001C0020008B
:100D84001B0020000A2E200058FE07000000E2008D
:100D940003003200CB122000DA1E200078FE070088
:100DA400E022AE0001003700FDFF37001D002000E7
:100DB4001C0020001620EF000A2E20004BFE070026
:100DC4000000E20003003200CB122000BA20200011
:100DD4006BFE0700E002AE0001003700FDFF3700A4
:100DE4001D0020001C0020008B0020000A2E200083
:100DF4003EFE07000000E20003003200CB12200098
:100E0400BA2420005EFE0700E102AE0001003700B4
:0C0E1400FDFF37008AFF370000000600D9
:1006F0000000FA000220EF00100020000B00DD00D7
:10070000000178001A0060000000E2000060EF00C5
:1007100001003A000060EC000080FB000D00680062
:100720000000E200140032006060E10005003600C5
:10073000D4FF0700D3FF07006100560000067800D1
:10074000F9FF37001A0061000000E2000060EF00CE
:1007500001003A000060EC000080FB000D00680022
:100760000000E20003003200F00F2000800078005B
:100770000000370000003700010078000080FA0018
:04078000000006006F
:1006840057D020000E20ED00FEFF3A0000000000CD
:04069400000006005C
:100784001000FA0000FF07001007980048FF070058
:10079400823E200003002000BEFF07008B1F78006C
:1007A4000A0178008001EB000002EB0017FF07004C
:1007B4001E0190008001EB000002EB0013FF070014
:1007C400CF0578008100D1000080D3000007980095
:1007D40037FF07000B0178008001EB00ADFF070035
:1007E40060079800710798001E0090004101DD0029
:1007F4000E0090008000EB008001EB00A5FF0700D5
:1008040020079800310798006E009000FE009000C9
:100814002E019000BE0190000002EB00FBFE0700D9
:10082400800178000102780012072000E0004700F0
:1008340060004700110811006018E10060A0E100A9
:10084400170036008045800010017800A18A20003E
:1008540080458000110871008A9FBE000E0590003B
:100864008005EB00CAFE0700804580001001780077
:10087400C18A200080458000110861000E059000A7
:100884008005EB00C2FE07004F05BE0061805100E9
:10089400E0005A008001780001027800E6FF37008A
:1008A4008045800010017800C18A200080458000C6
:0C08B400110861000080FA00000006003E
:08038C00400020000000060003
:0C04B4000088230011002000000006005A
:100394000A0478004001200000A0EC0090047800DA
:1003A4001000F800E70020008703E900030035008F
:1003B4008904D1000884D300FBFF37001200F90040
:1003C400F7FF2300878464001000E2000400320079
:1003D400F93F0900000000000804E900FAFF3700B3
:0C03E40009800900000000000000060075
:100698000000FA00020AB800500088000200B80002
:1006A80081004200032AB800810042000080FA005D
:0406B8000000060038
:100410000000FA000200070056020400000000007D
:100420000800E20002003A00100007000000060089
:10043000839F68000200E20002003D00600010009F
:10044000E08018000600E20002003D00600111009B
:10045000E0811900050007004F00E00002003B00AA
:1004600060001000E0801800000006006022B80064
:10047000060220000000D0008180D2000482D20059
:100480008582D2000000A8000202520083825A0036
:1004900003003B000202420083824A000000A100E8
:1004A0000603E900F3FF3A00000006000080FA00AE
:0404B0000000060042
:100F840001802000001E280050000900B0187800DD
:080F9400B058780000000600CF
:020000040001F9
:10000000000000000000000000000000005F000091
:1000100000000000000700000007000000140000BE
:100020007F1400007F140000242A00007F2A0000B3
:10003000122300001308000064620000364900002B
:1000400055220000500000000503000000000000E1
:10005000001C0000224100000000000041220000BE
:100060001C000000082A00001C2A000008080000EC
:10007000083E0000080800000050000030000000AA
:100080000008000008080000080800000030000018
:1000900030000000002000001008000004020000F2
:1000A0003E510000494500003E000000427F000034
:1000B000400000004261000051490000462100005C
:1000C000414500004B31000018140000127F000071
:1000D0001027000045450000453900003C4A00005B
:1000E00049490000300100007109000005030000CB
:1000F0003649000049490000360600004949000021
:10010000291E00000036000036000000000000003C
:100110005636000000000000000800001422000015
:1001200041140000141400001414000041220000C7
:100130001408000000020000015100000906000040
:1001400032490000794100003E7E0000111100009C
:10015000117E00007F49000049490000363E000042
:1001600041410000412200007F4100004122000087
:100170001C7F000049490000494100007F09000040
:1001800009010000013E0000414100005132000021
:100190007F080000080800007F000000417F000089
:1001A0004100000020400000413F0000017F0000AE
:1001B00008140000224100007F4000004040000081
:1001C000407F000002040000027F00007F04000066
:1001D000081000007F3E000041410000413E000049
:1001E0007F09000009090000063E0000415100009F
:1001F000215E00007F09000019290000464600002A
:100200004949000049310000010100007F01000060
:10021000013F000040400000403F00001F20000060
:10022000402000001F7F000020180000207F0000F9
:100230006314000008140000630300000478000049
:100240000403000061510000494500004300000024
:10025000007F00004141000002040000081000007F
:1002600020410000417F0000000000000402000067
:100270000102000004400000404000004040000037
:10028000000100000204000000200000545400009F
:10029000547800007F4800004444000038380000D3
:1002A000444400004420000038440000444800005A
:1002B0007F3800005454000054180000087E0000ED
:1002C000090100000208000014540000543C000022
:1002D0007F0800000404000078000000447D000056
:1002E0004000000020400000443D000000000000ED
:1002F0007F10000028440000004100007F40000003
:10030000007C000004180000047800007C08000055
:100310000404000078380000444400004438000021
:100320007C140000141400000808000014140000DD
:10033000187C00007C08000004040000084800004D
:100340005454000054200000043F000044400000CA
:10035000203C000040400000207C00001C200000E9
:10036000402000001C3C000040300000403C0000E9
:100370004428000010280000440C000050500000E9
:10038000503C000044640000544C00004400000055
:100390000836000041000000000000007F0000005F
:1003A00000000000413600000800000008080000BE
:1003B0002A1C0000080800001C2A00000808000091
:1003C000736F00006C2D00006C6100002D73000045
:1003D000692D0000646F00002D730000692D00007E
:1003E0006C610000006C0000612D0000736900006A
:1003F0002D6400006F2D0000726500002D64000068
:100400006F2D0000736900002D6C0000610000007A
:100410006D6900002D660000612D0000736F000003
:100420006C2D00006C6100002D730000692D000030
:0C043000646F00002D73000069000000E4
:10043C006D6900002D660000612D0000736F0000D7
:10044C006C2D0000666100002D6D0000692D000010
:0C045C00726500002D6D000069000000BA
:10046800507200006F6A000065630000742000008D
:10047800627900002042000075720000616B000084
:0C048800264D0000616C000069000000BF
:10049400536F00006E6700002069000073200000A5
:1004A4006C6F000061640000696E0000670000006A
:1004B40041720000746900006B2000005365000065
:1004C400766D0000657900006563000065670000D3
:1004D400696D000000570000656C0000636F000048
:1004E4006D650000207400006F2000004D6900005D
:1004F400637200006F500000696100006E6F0000BD
:0405040000000000F3
:0200000401F009
:1C000000068700003F000000B38700000F3100000F3300000700000003C0000092
:00000001FF
